{
    "_format": "hh-sol-artifact-1",
    "contractName": "CertificateIssuer",
    "sourceName": "contracts/CharacterIssuer.sol",
    "abi": [
        {
            "inputs": [],
            "stateMutability": "nonpayable",
            "type": "constructor"
        },
        {
            "inputs": [
                {
                    "internalType": "address",
                    "name": "user",
                    "type": "address"
                }
            ],
            "name": "getCertificates",
            "outputs": [
                {
                    "components": [
                        {
                            "internalType": "string",
                            "name": "ipfsHash",
                            "type": "string"
                        },
                        {
                            "internalType": "string",
                            "name": "certHash",
                            "type": "string"
                        },
                        {
                            "internalType": "uint256",
                            "name": "timestamp",
                            "type": "uint256"
                        }
                    ],
                    "internalType": "struct CertificateIssuer.Certificate[]",
                    "name": "",
                    "type": "tuple[]"
                }
            ],
            "stateMutability": "view",
            "type": "function"
        },
        {
            "inputs": [
                {
                    "internalType": "address",
                    "name": "user",
                    "type": "address"
                },
                {
                    "internalType": "string",
                    "name": "ipfsHash",
                    "type": "string"
                },
                {
                    "internalType": "string",
                    "name": "certHash",
                    "type": "string"
                }
            ],
            "name": "issueCertificate",
            "outputs": [],
            "stateMutability": "nonpayable",
            "type": "function"
        },
        {
            "inputs": [],
            "name": "owner",
            "outputs": [
                {
                    "internalType": "address",
                    "name": "",
                    "type": "address"
                }
            ],
            "stateMutability": "view",
            "type": "function"
        },
        {
            "inputs": [
                {
                    "internalType": "address",
                    "name": "",
                    "type": "address"
                },
                {
                    "internalType": "uint256",
                    "name": "",
                    "type": "uint256"
                }
            ],
            "name": "userCerts",
            "outputs": [
                {
                    "internalType": "string",
                    "name": "ipfsHash",
                    "type": "string"
                },
                {
                    "internalType": "string",
                    "name": "certHash",
                    "type": "string"
                },
                {
                    "internalType": "uint256",
                    "name": "timestamp",
                    "type": "uint256"
                }
            ],
            "stateMutability": "view",
            "type": "function"
        }
    ],
    "bytecode": "0x6080604052348015600f57600080fd5b50336000806101000a81548173ffffffffffffffffffffffffffffffffffffffff021916908373ffffffffffffffffffffffffffffffffffffffff160217905550610e798061005f6000396000f3fe608060405234801561001057600080fd5b506004361061004c5760003560e01c80633b34bb0b146100515780638da5cb5b14610083578063e98ac4d8146100a1578063f1c49c62146100bd575b600080fd5b61006b6004803603810190610066919061062a565b6100ed565b60405161007a93929190610709565b60405180910390f35b61008b610244565b604051610098919061075d565b60405180910390f35b6100bb60048036038101906100b691906108ad565b610268565b005b6100d760048036038101906100d29190610938565b6103b6565b6040516100e49190610ad7565b60405180910390f35b6001602052816000526040600020818154811061010957600080fd5b90600052602060002090600302016000915091505080600001805461012d90610b28565b80601f016020809104026020016040519081016040528092919081815260200182805461015990610b28565b80156101a65780601f1061017b576101008083540402835291602001916101a6565b820191906000526020600020905b81548152906001019060200180831161018957829003601f168201915b5050505050908060010180546101bb90610b28565b80601f01602080910402602001604051908101604052809291908181526020018280546101e790610b28565b80156102345780601f1061020957610100808354040283529160200191610234565b820191906000526020600020905b81548152906001019060200180831161021757829003601f168201915b5050505050908060020154905083565b60008054906101000a900473ffffffffffffffffffffffffffffffffffffffff1681565b60008054906101000a900473ffffffffffffffffffffffffffffffffffffffff1673ffffffffffffffffffffffffffffffffffffffff163373ffffffffffffffffffffffffffffffffffffffff16146102f6576040517f08c379a00000000000000000000000000000000000000000000000000000000081526004016102ed90610ba5565b60405180910390fd5b600160008473ffffffffffffffffffffffffffffffffffffffff1673ffffffffffffffffffffffffffffffffffffffff1681526020019081526020016000206040518060600160405280848152602001838152602001428152509080600181540180825580915050600190039060005260206000209060030201600090919091909150600082015181600001908161038e9190610d71565b5060208201518160010190816103a49190610d71565b50604082015181600201555050505050565b6060600160008373ffffffffffffffffffffffffffffffffffffffff1673ffffffffffffffffffffffffffffffffffffffff168152602001908152602001600020805480602002602001604051908101604052809291908181526020016000905b82821015610577578382906000526020600020906003020160405180606001604052908160008201805461044a90610b28565b80601f016020809104026020016040519081016040528092919081815260200182805461047690610b28565b80156104c35780601f10610498576101008083540402835291602001916104c3565b820191906000526020600020905b8154815290600101906020018083116104a657829003601f168201915b505050505081526020016001820180546104dc90610b28565b80601f016020809104026020016040519081016040528092919081815260200182805461050890610b28565b80156105555780601f1061052a57610100808354040283529160200191610555565b820191906000526020600020905b81548152906001019060200180831161053857829003601f168201915b5050505050815260200160028201548152505081526020019060010190610417565b505050509050919050565b6000604051905090565b600080fd5b600080fd5b600073ffffffffffffffffffffffffffffffffffffffff82169050919050565b60006105c182610596565b9050919050565b6105d1816105b6565b81146105dc57600080fd5b50565b6000813590506105ee816105c8565b92915050565b6000819050919050565b610607816105f4565b811461061257600080fd5b50565b600081359050610624816105fe565b92915050565b600080604083850312156106415761064061058c565b5b600061064f858286016105df565b925050602061066085828601610615565b9150509250929050565b600081519050919050565b600082825260208201905092915050565b60005b838110156106a4578082015181840152602081019050610689565b60008484015250505050565b6000601f19601f8301169050919050565b60006106cc8261066a565b6106d68185610675565b93506106e6818560208601610686565b6106ef816106b0565b840191505092915050565b610703816105f4565b82525050565b6000606082019050818103600083015261072381866106c1565b9050818103602083015261073781856106c1565b905061074660408301846106fa565b949350505050565b610757816105b6565b82525050565b6000602082019050610772600083018461074e565b92915050565b600080fd5b600080fd5b7f4e487b7100000000000000000000000000000000000000000000000000000000600052604160045260246000fd5b6107ba826106b0565b810181811067ffffffffffffffff821117156107d9576107d8610782565b5b80604052505050565b60006107ec610582565b90506107f882826107b1565b919050565b600067ffffffffffffffff82111561081857610817610782565b5b610821826106b0565b9050602081019050919050565b82818337600083830152505050565b600061085061084b846107fd565b6107e2565b90508281526020810184848401111561086c5761086b61077d565b5b61087784828561082e565b509392505050565b600082601f83011261089457610893610778565b5b81356108a484826020860161083d565b91505092915050565b6000806000606084860312156108c6576108c561058c565b5b60006108d4868287016105df565b935050602084013567ffffffffffffffff8111156108f5576108f4610591565b5b6109018682870161087f565b925050604084013567ffffffffffffffff81111561092257610921610591565b5b61092e8682870161087f565b9150509250925092565b60006020828403121561094e5761094d61058c565b5b600061095c848285016105df565b91505092915050565b600081519050919050565b600082825260208201905092915050565b6000819050602082019050919050565b600082825260208201905092915050565b60006109ad8261066a565b6109b78185610991565b93506109c7818560208601610686565b6109d0816106b0565b840191505092915050565b6109e4816105f4565b82525050565b60006060830160008301518482036000860152610a0782826109a2565b91505060208301518482036020860152610a2182826109a2565b9150506040830151610a3660408601826109db565b508091505092915050565b6000610a4d83836109ea565b905092915050565b6000602082019050919050565b6000610a6d82610965565b610a778185610970565b935083602082028501610a8985610981565b8060005b85811015610ac55784840389528151610aa68582610a41565b9450610ab183610a55565b925060208a01995050600181019050610a8d565b50829750879550505050505092915050565b60006020820190508181036000830152610af18184610a62565b905092915050565b7f4e487b7100000000000000000000000000000000000000000000000000000000600052602260045260246000fd5b60006002820490506001821680610b4057607f821691505b602082108103610b5357610b52610af9565b5b50919050565b7f4e6f7420617574686f72697a6564000000000000000000000000000000000000600082015250565b6000610b8f600e83610675565b9150610b9a82610b59565b602082019050919050565b60006020820190508181036000830152610bbe81610b82565b9050919050565b60008190508160005260206000209050919050565b60006020601f8301049050919050565b600082821b905092915050565b600060088302610c277fffffffffffffffffffffffffffffffffffffffffffffffffffffffffffffffff82610bea565b610c318683610bea565b95508019841693508086168417925050509392505050565b6000819050919050565b6000610c6e610c69610c64846105f4565b610c49565b6105f4565b9050919050565b6000819050919050565b610c8883610c53565b610c9c610c9482610c75565b848454610bf7565b825550505050565b600090565b610cb1610ca4565b610cbc818484610c7f565b505050565b5b81811015610ce057610cd5600082610ca9565b600181019050610cc2565b5050565b601f821115610d2557610cf681610bc5565b610cff84610bda565b81016020851015610d0e578190505b610d22610d1a85610bda565b830182610cc1565b50505b505050565b600082821c905092915050565b6000610d4860001984600802610d2a565b1980831691505092915050565b6000610d618383610d37565b9150826002028217905092915050565b610d7a8261066a565b67ffffffffffffffff811115610d9357610d92610782565b5b610d9d8254610b28565b610da8828285610ce4565b600060209050601f831160018114610ddb5760008415610dc9578287015190505b610dd38582610d55565b865550610e3b565b601f198416610de986610bc5565b60005b82811015610e1157848901518255600182019150602085019450602081019050610dec565b86831015610e2e5784890151610e2a601f891682610d37565b8355505b6001600288020188555050505b50505050505056fea2646970667358221220930e66ef8c1bde494ce0607559b10ee2b232354062352f21e253760d0c60088864736f6c634300081c0033",
    "linkReferences": {},
    "deployedLinkReferences": {}
}